:100A4600543A30304320483A3030252020202020A8
:100A56000053414D504C4520524154453A3031489F
:020A66007A0014
:100AC100010B00010E00010C01010900010A00C126
:090AD10080C181010D0001080043
:0F0A19008F807F057E00120A28D2A47F057E0001
:100A2800D3EF9400EE940040147D0A7C00ED1D7015
:0D0A3800011CED4C70F7EF1F70E61E80E30F
:010A4500228E
:08000300C2A3120A19C2A422D3
:0B0B08007C007D0A120378EF2430FF10
:080B1300D2A3120A19C2A422A8
:10094C007F381200037F0C1200037F061200037F16
:10095C00011200037F80120003E4FBEB900A469324
:10096C00FF120B130BBB10F37FC0120003E4FBEB65
:0C097C00900A5793FF120B130BBB10F3F3
:01098800224C
:1007B1008E218F228C238D247F82120003AE21AFE4
:1007C10022120B08AE21AF227C007D0A120378EDC4
:1007D1002430FF120B137F88120003AE23AF2412C3
:1007E1000B08AE23AF247C007D0A120378ED243080
:1007F100FF120B137FCC1200033002097F20120B72
:10080100137F20801A7C007D0AAF03AE02120B0C0D
:10081100AE02AF037C007D0A120378ED2430FF1293
:030821000B132294
:070B4600E4FF000FBF04FBF8
:010B4D002285
:0F0B2B00D2A0D2A1120B46C2A0120B46C2A12229
:0C0B3A00C2A0D2A1120B46D2A0020B46B2
:05090E00120B2B7FA07D
:02091300AE072D
:10091500E4FDEE30E703D38001C392A0120B46D26B
:10092500A1120B46C2A1EE25E0FE0DBD08E4D2A042
:10093500120B46D2A1120B46A2A04003D38001C3DD
:060945009202C2A1A20211
:01094B002289
:10098900E4FED2A0FDEE25E0FED2A1120B4630A076
:1009990003430601C2A1120B460DBD08E83002034C
:1009A900C38001D392A0D2A1120B46C2A1D2A0AF9B
:0109B9000637
:0109BA00221A
:100AF2007CFFAF041CEF600D12090E5003020B3A8B
:050B0200120B3A80ED2A
:010B070022CB
:100ADB00AC05AB0712090EAF03120913AF041209D1
:070AEB0013120B3A020AF29C
:020A6800AC07D9
:100A6A0012090EAF04120913120B2B7FA1120913DC
:0C0A7A00C202120989AE07120B3AAF0647
:010A8600224D
:040B5500000000227A
:1009BB00E4FE7D80EDD394004017ED5F6004D2B56B
:1009CB008002C2B5D2B4120B55C2B4EDC313FD8075
:0F09DB00E3D2B5D2B4120B55A2B5E433C2B4FFC8
:0109EA0022EA
:1009EB00E4FED2B57D80EDD394004010D2B430B587
:1009FB0003ED4206C2B4EDC313FD80EAEF24FFB34F
:0D0A0B0092B5D2B4120B55C2B4D2B5AF06ED
:010A180022BB
:100A8700D2B5D2B4120B55C2B5120B55C2B4120B64
:0E0A970055D2B4120B55D2B5120B55C2B42273
:06073A008B368A37893876
:10074000900000E4F53D120A87E53C70047F0380C9
:10075000027F051209BB8F3D30B519AF82AE83E42D
:10076000FCFD7BFF7AFFF9F8D31203DB4006A312EE
:100770000B5580E420B504E53D60037F0122E4FFD2
:100780001209EBAB36AA37A938EF120344E4FF1283
:1007900009EBAB36AA37A938900001EF1203567F58
:1007A000011209EBAB39AA3AA93BEF1203447F00CF
:0107B0002226
:060483008B368A37893830
:100489001203F18F3F8E3E8D3D8C3CAB39AA3AA9C0
:100499003B1203F18F438E428D418C407F0A7ED7F8
:1004A9007D237C3CAB43AA42A941A840120106E442
:1004B900FBFA792078C21200158F4F8E4E8D4D8C24
:1004C9004C7FA27EE77D3B7CB6AB3FAA3EA93DA807
:1004D9003C120106AB3FAA3EA93DA83C120106C049
:1004E90004C005C006C0077F547EE37D257C3DAB73
:1004F9003FAA3EA93DA83C120106D003D002D00173
:10050900D000120015E4FBFA798078C01200158F2B
:10051900478E468D458C447FAC7EC57DA77C38AB24
:100529003FAA3EA93DA83C1201067B0A7AD7792346
:10053900783C120015C004C005C006C007E4FFFEE0
:100549007DC87CC1AB4FAA4EA94DA84C120015D04D
:1005590003D002D001D000120106AB47AA46A94533
:10056900A8441200158F4B8E4A8D498C48E4FFFE32
:100579007DC87C42AB4BAA4AA949A84812020C6023
:100589000D400BE4F54BF54A7549C67548427FCDD8
:100599007ECC7DCC7C3DAB4BAA4AA949A848120226
:1005A9000C500C754BCD754ACC7549CC75483DAF8F
:1005B9004FAE4EAD4DAC4CAB39AA3AA93B12041122
:1005C900AF4BAE4AAD49AC48AB36AA37A93802049D
:0105D9001110
:0605DA008B218A22892317
:1005E000753900753A00753B2BE4F53CFB7A0079D0
:1005F0002712073AEF6002C322753900753A007579
:100600003B2B753C017B007A00792912073AEF6099
:1006100002C322E527FEE528FDAC06E529F52CE519
:100620002AF52DAE04AF05E412028A8F318E308D8B
:100630002F8C2EAC2CAD2DE412028A8F358E348D8A
:10064000338C32753900753A00753B2E7B007A0089
:100650007932120483E4FFFEFDFCAB31AA30A92FEE
:10066000A82E12020C5009AB21AA22A923E4801B58
:10067000E4FFFEFD7C3FAB31AA30A92FA82E12006B
:10068000151202C3AB21AA22A923EF120344E4FFEF
:10069000FEFD7C3FAB35AA34A933A83212001512F7
:0D06A00002C3AB24AA25A926EF120344D300
:0106AD00222A
:070B4E00AD0CE4FF020ADB1D
:100AA500E4FF120A688F0CE50CC394014007E50CBE
:0C0AB500D3940A4006750C01120B4E226F
:100B1B00758901758AB0758C3CD2AFD2A9D28C2263
:1008240020A61930A6FD050DD201E4F50AE50DC395
:1008340094024003E4F50D7F0C12000320A71DE58C
:100844000D601930A7FDE50CC3940A4005750C0131
:100854008002050CD201E4F50A120B4E20B71DE507
:100864000D601930B7FDE50CD394015005750C0AE1
:0D0874008002150CD201E4F50A120B4E2291
:1008810012094C120AA5120B1BE50D701930001646
:10089100C2A9F52475250075260EFB7A00790B1285
:1008A10005DAD2A9C200AF0B7E00AD0E7C00AB0C05
:1008B1007A00E50D6006200103D38001C392021284
:0708C10007B112082480C2F8
:03000B000208C820
:0408C800C0E0C0D0FC
:1008CC00758AB0758C3C0508E508C39401402E75FB
:1008DC000800E50D600F050AE50A940A401F750A29
:1008EC0000B2018018D201750A00E50C2509F50942
:0D08FC00C39414400874EC2509F509D200DE
:05090900D0D0D0E03267
:10000E0002032FE86480F8E933E83360110460F0EE
:10001E00ED33EC337009E8FCE9FDEAFEEBFF220458
:10002E0060DED3EB9FEA9EE99DE8C2E78CF0C2F753
:10003E0095F0400CE8CCF8E9CDF9EACEFAEBCFFB1F
:10004E001202FA85D0F05804700320D5B3E804707C
:10005E00075002B2D502033992D5EC0460F7E4CC16
:10006E00C0E0C398F8603B94186008400DD0E0FBE8
:10007E00020311E4FBFAC9FC8028E830E406E4C967
:10008E00FBE4CAFCE830E305E4C9CACBFCE854073C
:10009E006010F8C3E913F9EA13FAEB13FBEC13FC47
:1000AE00D8F130F52FC3E49CFCEF9BFFEE9AFEEDEA
:1000BE0099FDD0E0FBEF4E4D4C701222DB03020394
:1000CE0036EC2CFCEF33FFEE33FEED33FDED30E777
:1000DE00EB020311EF2BFFEE3AFEED39FDD0E0FB04
:1000EE0050130BBB0003020339ED13FDEE13FEEFAD
:0800FE0013FFEC13FC020311D7
:10010600EC4D6011E8497017ED33EC3304600DE4F3
:10011600FCFFFEFD22E933E8330470F802032F12D8
:1001260002FA58046009E4CC2481500628500902DA
:100136000339284003020336C0E0EB4A7044B98015
:1001460006D0E0FB020325EF4E701CBD8008EBFFD6
:10015600EAFEE9FD80EBE98DF0A4FEE5F00201EF91
:10016600E9CDF9EAFEEBFFEF89F0A4FCE5F0CE89D4
:10017600F0A42EFFE435F0CD89F0A42DFEE435F091
:100186008067EF4E7005BD80D780C3EF8BF0A4ACBF
:10019600F0EE8BF0A42CFCE435F0F8EF8AF0A42CFA
:1001A600E5F038FCE433CB8DF0A42CFCE5F03BF80D
:1001B600EE8AF0A42CFCE5F038F8E433CF89F0A4FD
:1001C6002CFCE5F038CF3400CE89F0A42FFFE5F003
:1001D6003EFEE433C98DF0A42EFEE5F039CD8AF05B
:1001E600A42FFFE5F03EFEE43DFD33D0E0FB5007D3
:1001F6000BBB000F020339EC2CFCEF33FFEE33FE92
:06020600ED33FD020311BF
:10020C0074F8CC6480CCC86480C8F58204604FC399
:10021C00EB9FF5F0EA9E42F0E99D42F0E89C45F038
:10022C00603C501DE5825FFFE582D313CB5BCBF4C2
:10023C002B5582FB50280ABA002409B900200880EB
:10024C001DE5825BFBE582D313CF5FCFF4C3132F85
:10025C005582FF50090EBE00050DBD00010CC3EB0D
:10026C009FF5F0EA9E42F0E99D42F0E89C45F06073
:09027C0007CC4820E701B3EC2295
:1002850075F020800E75F010800575F0087D007EF4
:10029500007F003392D530D5031203CDEC334010E7
:1002A500EF33FFEE33FEED33FDEC33FCD5F0ED22FD
:0E02B500E5F0247EA2D513CC92E7CDCEFF2239
:1002C300EDD2E7CD33EC3392D524814006E4FFFE33
:1002D300FDFC22FCE4CFCECDCC24E0501174FF8092
:1002E300EDC3CC13CCCD13CDCE13CECF13CF04702F
:0702F300F030D5DE0203CD5F
:1002FA00E9D2E7C933E833F892D5EDD2E7CD33EC4A
:07030A0033FC5002B2D522C2
:10031100EC30E7100FBF000C0EBE00080DBD00044D
:100321000BEB6014A2D5EB13FCED92E7FD2274FFF9
:10033100FCFDFEFF22E480F8A2D574FF13FC7D8052
:03034100E480EF66
:030000000206AE47
:0C06AE00787FE4F6D8FD75814F0206F558
:10034400BB010689828A83F0225002F722BBFE0198
:02035400F32292
:10035600F8BB010DE58229F582E5833AF583E8F0DD
:10036600225006E92582C8F622BBFE05E92582C889
:02037600F22271
:10037800BC000BBE0029EF8DF084FFADF022E4CC69
:10038800F875F008EF2FFFEE33FEEC33FCEE9DEC32
:10039800984005FCEE9DFE0FD5F0E9E4CEFD22ED78
:1003A800F8F5F0EE8420D21CFEADF075F008EF2FC2
:1003B800FFED33FD4007985006D5F0F222C398FDB3
:0503C8000FD5F0EA2250
:0E03CD00C3E49FFFE49EFEE49DFDE49CFC2241
:1003DB00EB9FF5F0EA9E42F0E99D42F0EC6480C899
:0603EB0064809845F02239
:1003F100BB010789828A830204375005E9F80204A8
:100401002BBBFE05E9F802044389828A8302044F6B
:10041100BB010789828A8302046B5005E9F8020453
:0A0421005FBBFE05E9F80204772234
:1006BA00020881E493A3F8E493A34003F68001F2CD
:1006CA0008DFF48029E493A3F85407240CC8C33341
:1006DA00C4540F4420C8834004F456800146F6DF10
:1006EA00E4800B0102040810204080900AC1E47ED5
:1006FA00019360BCA3FF543F30E509541FFEE49305
:10070A00A360010ECF54C025E060A840B8E493A3CB
:10071A00FAE493A3F8E493A3C8C582C8CAC583CAF6
:10072A00F0A3C8C582C8CAC583CADFE9DEE780BEAE
:010ADA00001B
:0C042B00E6FC08E6FD08E6FE08E6FF22FD
:0C043700E0FCA3E0FDA3E0FEA3E0FF2238
:0C044300E2FC08E2FD08E2FE08E2FF22F5
:10044F00E493FC740193FD740293FE740393FF22F3
:0C045F00ECF608EDF608EEF608EFF622C9
:0C046B00ECF0A3EDF0A3EEF0A3EFF02204
:0C047700ECF208EDF208EEF208EFF222C1
:00000001FF
